:10000000005D00206D5000004518010059500000AF
:1000100059500000595000005950000000000000E5
:1000200000000000000000000000000085510000FA
:100030005950000000000000095100005950000014
:100040007D530000692301007D5300007D530000B3
:100050007D5300007D5300007D5300007D53000060
:100060007D5300007D5300007D5300007D53000050
:100070007D5300007D5300007D5300007D53000040
:100080007D5300007D5300007D5300007D53000030
:100090007D5300007D5300007D5300007D53000020
:1000A0007D5300007D5300007D5300007D53000010
:1000B0007D5300007D5300007D5300007D53000000
:1000C0007D5300007D5300007D5300007D530000F0
:1000D0007D5300007D5300007D5300007D530000E0
:1000E0007D5300007D5300007D5300007D530000D0
:1000F0007D5300007D5300007D5300007D530000C0
:100100007BB972B90029BEBF00204FF0004106E064
:1001100008BF00281CBF6FF000414FF0FF3000F017
:1001200057B8ADF1080C6DE904CE002909DB002BAE
:100130001ADB00F04FF8DDF804E0DDE9022304B03B
:100140007047404261EB4101002B1BDB00F042F89D
:10015000DDF804E0DDE9022304B0404261EB410137
:10016000524263EB43037047524263EB430300F098
:1001700031F8DDF804E0DDE9022304B0404261EB30
:1001800041017047524263EB430300F023F8DDF86E
:1001900004E0DDE9022304B0524263EB43037047FD
:1001A00053B94AB9002908BF00281CBF4FF0FF31DE
:1001B0004FF0FF3000F00CB8ADF1080C6DE904CE43
:1001C00000F008F8DDF804E0DDE9022304B0704730
:1001D000704700BF2DE9F04786468C460846089ECA
:1001E000154674461946002B40F0C2808542B2FA8B
:1001F00082F245D94AB1C2F1200300FA02FC2EFA7C
:1002000003F3954043EA0C0C94404FEA154EA8B214
:10021000BCFBFEF8230C0EFB18CC08FB00F943EAEC
:100220000C43994528D9EB1808F1FF3704D29945BA
:1002300002D9A8F102072B44A3EB0903A4B2B3FB34
:10024000FEFC0EFB1C330CFB00F044EA0344A0420E
:1002500014D92C190CF1FF3304D2A04202D9ACF10D
:1002600002032C44241A43EA07401EB1D440002361
:1002700034607360BDE8F0874746DDE76346F1E729
:1002800092BB431B01214FEA154EAFB2B3FBFEFCFC
:10029000200C0EFB1C330CFB07F840EA0343984587
:1002A00062D9EB180CF1FF3004D2984502D9ACF1B9
:1002B00002002B44A3EB0803A4B2B3FBFEFC0EFB2D
:1002C0001C330CFB07F744EA0344A7424ED92C1910
:1002D0000CF1FF3304D2A74202D9ACF102032C4443
:1002E000E41B43EA0040C0E7C2F1200320FA03F117
:1002F000954090402EFA03F303434FEA154EAFB2F8
:10030000B1FBFEFC0EFB1C10190C0CFB07F841EABC
:100310000041884504FA02F422D969180CF1FF3033
:1003200004D2884502D9ACF102002944A1EB0801AE
:100330009BB2B1FBFEFC0EFB1C110CFB07F743EA62
:1003400001439F420ED9EB180CF1FF3104D29F42BA
:1003500002D9ACF102012B44DB1B41EA004192E7D8
:100360006046E3E76146F7E76046A3E76346B7E721
:10037000834206D916B9002108467BE7C6E900E0AA
:10038000F9E7B3FA83F78FB9834201D3724508D8EE
:10039000BEEB020460EB030301209C461EB9002162
:1003A00068E73846FAE7C6E9004CF8E7C7F1200CE1
:1003B000BB4022FA0CF41C432EFA0CF120FA0CF389
:1003C000B84001434FEA14490EFA07F5B3FBF9F8B8
:1003D0001FFA84FE09FB18300B0C08FB0EFA43EAE7
:1003E00000439A4502FA07F240D9E31808F1FF30BA
:1003F00004D29A4502D9A8F102002344A3EB0A03D0
:1004000089B2B3FBF9F809FB183308FB0EFE41EA89
:1004100003418E452CD9611808F1FF3304D28E4573
:1004200002D9A8F10203214443EA0040A0FB02984C
:10043000A1EB0E014145CE46434602D306D14D45C0
:1004400004D2B9EB020E68EB04030138002EA6D0EB
:10045000B5EB0E0261EB030101FA0CFC22FA07F383
:100460004CEA0303F940C6E9003198E74046C5E786
:100470004346D9E710F8012B11F8013B012A28BFA8
:100480009A42F7D0D01A7047034611F8012B03F8AF
:10049000012B002AF9D17047034613F8012B002ADB
:1004A000FBD1181A013870472DE9F04706468AB08B
:1004B0000F46904613F048F84FF47A73A0FB0345BB
:1004C00003FB0155E40B012F44EA45444FEAD535BF
:1004D00008D1CDE900452A4A0821304610F0CFF96D
:1004E000002013E0D8F8047026483946FFF7C2FF11
:1004F00078B125483946FFF7BDFF50B13046234A51
:100500003B46012110F0BBF96FF004000AB0BDE8D2
:10051000F0872046294618A3D3E90023FFF7F0FD12
:1005200005460C4610461946194A0023FFF7E8FD18
:1005300080460F46104619464EF660220023FFF70C
:10054000DFFD82468946104619464FF47A72002331
:10055000FFF7D6FDCDE904A9CDE90601CDE90823D1
:10056000CDE90287CDE900540A4A0821304610F04F
:1005700086F9B5E7AFF30080005C260500000000B7
:10058000CC520100DD520100E0520100E9520100AD
:1005900080EE3600005301002DE9F047044690F844
:1005A000340094F82030404FC0F3400060F38613CD
:1005B0008CB084F8203004F1210111F0A9FD258DC3
:1005C00094F82030E4614FF00008A5FB070103F028
:1005D0007903912606FB0511C4E9058884F82030CB
:1005E00084F800802EA3D3E90023304DFFF7D8FD17
:1005F0003123C4E90238651B3823B5FBF3F5236BBF
:10060000E362093398428EBF2361C4F82C802061D5
:10061000C4F804800646EDB211F06DFD02230B9381
:100620001D44234BCDE906430DF12C0A214BCDF897
:1006300020A00593236904934FF00009CDF80C9096
:10064000B4F828C000F10908ACFB0701912707FBAB
:100650000C1113A3D3E90023FFF7A2FD104619469E
:100660004FF47A720023FFF79BFDEDB2CDE90160F4
:100670000321CDF8009043462A46484611F020FD5C
:10068000514607F0B9FA40B994F8343043F0010309
:1006900084F834300CB0BDE8F0870C20FAE700BFD6
:1006A0008D49FD1A07000000002AE78490210020F0
:1006B000017A0000898D0000F8B504460020164636
:1006C0001F4608F0DDFB054628B390F8343001855D
:1006D00067F3420380F834309DF818306401DB0082
:1006E00003F0180304F020041C4390F8203023F09A
:1006F00038031C4380F820400B489124A6FB0001DE
:1007000007A3D3E9002304FB0611FFF749FDC5E960
:100710000B000020F8BD0C20FCE700BFAFF3008009
:100720008D49FD1A07000000002AE7840000000040
:100730002DE9F041C46823796FF300038CB0237175
:100740000D46064609F0ACFB002009F0CDFB002168
:10075000084609F0BBFB00222521082009F0FAFB1E
:10076000012007F0E5FA074660B9614A614962482D
:100770004FF4C5730FF011FA404080F311884FF029
:10078000030002DF07F11C0009F00EFC5B4B0B932A
:100790000BA809F0C7FB5A4940F25B6009F058FC0E
:1007A0002079C0F34100253008F022FF554821464A
:1007B00009F056FB23799B0658D5962009F0A8FD31
:1007C00000231A461946184609F00CFD237913F048
:1007D000180F07D0012008F0D3FB4178821C007865
:1007E00009F046FDD4F800803768404611F0DDFD81
:1007F0000744726807F10901002009F095FD09F02E
:1008000053FE09F011FD204608F022FB811C3A46F8
:10081000C9B2404611F0D7FD064650B3344A3A49B2
:10082000354840F2E5130FF0B8F938480725A6FB24
:1008300000012DA3D3E9002305FB0611FFF7B0FC4F
:100840003349024633480FF0A8F9404080F311883D
:100850004FF0030002DF3048214609F001FB09F0A8
:10086000B5FB6FF08B000CB0BDE8F08111F030FFEC
:10087000ACE71DBB23690BB340F2F3120892274A81
:10088000CDE90642264ACDE90035CDE90452CDE94D
:1008900002553B460122294611F012FC10F0FD0FD3
:1008A0000CD0134A1F4914484FF4FA730FF075F92E
:1008B000404080F311884FF0030002DF204611F022
:1008C00072FD08B90020CEE7094A17490A4840F2EC
:1008D0000B230FF062F9404080F311884FF00300C2
:1008E00002DFEFE7AFF3008000CA9A3B0000000090
:1008F000057301005073010003680100D6BE898EA4
:1009000055555500819A0000C57401008D49FD1AA6
:1009100094730100587301002524010065990000BB
:10092000F199000058720100E26E01001A68517ED0
:1009300092F91920002A0F4A0FDB11701968897E7D
:1009400051701968C97E91701B681B7FD37009496B
:100950000948002200230CF0EFBD8039117119689D
:10096000897E51711968C97E91711B681B7FD37193
:10097000EDE700BFF22400200C04002001460148EE
:100980000DF0ACBB6815002010B554681F49204617
:10099000FFF770FD20B90120FFF7F0FF002010BD28
:1009A0001B492046FFF766FD08B90220F4E7194904
:1009B0002046FFF75FFD08B90320EDE71649204602
:1009C000FFF758FD08B90420E6E714492046FFF771
:1009D00051FD08B90520DFE711492046FFF74AFD20
:1009E00008B90620D8E70F492046FFF743FD08B9AC
:1009F0000720D1E70C492046FFF73CFD08B9082045
:100A0000CAE70A480FF0BCF8C8E700BF3C4E010037
:100A1000434E01004A4E0100514E0100584E010064
:100A20005F4E0100664E01006D4E0100744E0100E4
:100A300010B554681F492046FFF71CFD20B9092056
:100A4000FFF79CFF002010BD1B492046FFF712FD59
:100A500008B90A20F4E719492046FFF70BFD08B949
:100A60000B20EDE716492046FFF704FD08B90C20DE
:100A7000E6E714492046FFF7FDFC08B90D20DFE743
:100A800011492046FFF7F6FC08B90E20D8E70F49B8
:100A90002046FFF7EFFC08B90F20D1E70C492046AC
:100AA000FFF7E8FC08B91020CAE70A480FF068F819
:100AB000C8E700BF3C4E0100434E01004A4E010012
:100AC000514E0100584E01005F4E0100664E01007C
:100AD0006D4E0100744E010010B554682249204645
:100AE000FFF7C8FC20B91120FFF748FF002010BD18
:100AF0001E492046FFF7BEFC08B91220F4E71C4946
:100B00002046FFF7B7FC08B91320EDE71949204646
:100B1000FFF7B0FC08B91420E6E717492046FFF7B5
:100B2000A9FC08B91520DFE714492046FFF7A2FC0D
:100B300008B91620D8E712492046FFF79BFC08B9F0
:100B40001720D1E70F492046FFF794FC08B9182079
:100B5000CAE70D492046FFF78DFC08B91920C3E705
:100B60000A480FF00DF8C1E73C4E0100434E01006A
:100B70004A4E0100514E0100584E01005F4E0100E7
:100B8000664E01006D4E0100834E0100744E01005F
:100B900010B588B00021142203A812F0F1FE0E4B0C
:100BA0000222CDE904230D4B18689A8801909B79A5
:100BB000ADF8082001A88DF80A3005F0EBFD0849D2
:100BC00003A806F011F9044610B906480EF0D8FF44
:100BD000204608B010BD00BF60003000B8420100E0
:100BE0002D090000864E010030B5002087B005F0C9
:100BF0002FFD014610B11B480EF0C2FFFFF7C8FFE2
:100C0000034620B1184A194801210FF084FC184C02
:100C1000184D174918484FF0FF324FF0FF330CF0D2
:100C2000E1FC4FF0FF324FF0FF3328460CF046FE58
:100C3000E3790493A379039363790293237901936E
:100C4000E37800936278A37821780C480EF098FF3F
:100C500000214FF4C0400CF039FC28460CF008FE8F
:100C6000D7E700BF9B4E0100BB4E010030410100A1
:100C7000EA2400203C0400200C040020C74E0100A0
:100C8000024B0022C3E90022704700BF601500201C
:100C900000234367054B596800F1740211B9C3E999
:100CA000002270470A605A60704700BF601500203C
:100CB00038B5074B1C6805463CB1743C29462046B4
:100CC000FFF7D8FB08B1646FF6E7204638BD00BFD8
:100CD000601500202DE9F04FADF2144DC54C2046B3
:100CE00012F0E9FD1022002107A812F049FE0123AD
:100CF0000B94C14C8DF829300021FFF7C1FF12A8D9
:100D0000642212F03DFEA3798DF83630BB4BA288E9
:100D10002068ADF834200C900DF1370203F110017A
:100D200053F8040B42F8040B8B42F9D11B88138053
:100D3000B34FDFF8D08240F6C123ADF84A3048F215
:100D4000E603ADF84C303B68CDF85930BB88D8F895
:100D50000090B8F8046098F80650ADF85D30412274
:100D6000BB798DF85F30002118A8CDF85290ADF80E
:100D700056608DF8585012F003FE6422002131A80D
:100D800012F0FEFDA04BCDF8AC90ADF8B0608DF840
:100D9000B2500DF1B30203F1100153F8040B42F805
:100DA000040B8B42F9D11B88138048F2CF03ADF8B6
:100DB000C630964B964E32932368CDF8D530A38833
:100DC000D6F800A0B6F80490B579ADF8D930412234
:100DD000A3798DF8DB30002137A8CDF8CEA0ADF88F
:100DE000D2908DF8D45012F0CBFD6422002150A88F
:100DF00012F0C6FD874BCDF828A1ADF82C918DF8E7
:100E00002E510DF22F1203F1100153F8040B42F88A
:100E1000040B8B42F9D11B88138046F63703ADF8DB
:100E200042317D4B7D4D5193D8F80030CDF8513192
:100E3000B8F80430D5F800B0B5F804A095F80690DD
:100E4000ADF85531412298F806308DF85731002120
:100E500056A8CDF84AB1ADF84EA18DF8509112F0D8
:100E60008FFD642200216FA812F08AFD6C4BCDF833
:100E7000A4B1ADF8A8A18DF8AA910DF2AB1203F1BF
:100E8000100153F8040B42F8040B8B42F9D11B8874
:100E900013804AF21333ADF8BE31624B70930223D4
:100EA000DFF88481ADF8C4313368CDF8CD31B38833
:100EB000D8F800B0B8F804A098F80690ADF8D13191
:100EC0004122B3798DF8D331002175A8CDF8C6B190
:100ED000ADF8CAA18DF8CC9112F052FD6422002128
:100EE0008EA812F04DFD514BCDF820B2ADF824A2E2
:100EF0008DF826920DF2272203F1100153F8040B0E
:100F000042F8040B8B42F9D11B88138047F2D77348
:100F1000ADF83A32464B8F930423464EADF840323B
:100F20002B68CDF84932AB88D6F800B0B6F804A0EB
:100F300096F80690ADF84D324122AB798DF84F32DC
:100F4000002194A8CDF842B2ADF846A28DF848929F
:100F500012F016FD64220021ADA812F011FD364BEF
:100F6000CDF89CB2ADF8A0A28DF8A2920DF2A3220A
:100F700003F1100153F8040B42F8040B8B42F9D132
:100F80001B88138041F63303ADF8B6322B4BAE937A
:100F900004232B4DADF8BC32D8F80030CDF8C53263
:100FA000B8F80430D5F800B0B5F804A095F806906C
:100FB000ADF8C932412298F806308DF8CB320021C5
:100FC000B3A8CDF8BEB2ADF8C2A28DF8C49212F0AB
:100FD000D7FC64220021CCA812F0D2FC194BCDF82A
:100FE00018B3ADF81CA38DF81E930DF21F3203F158
:100FF000100129E0681500203C4E01001750010047
:101000006D4E0100434E010029500100DF510200E6
:101010004A4E01003B500100AB9D0400514E0100BF
:101020004D50010090970400584E01005F500100A0
:10103000FBCA04005F4E010071500100DA47020054
:10104000664E01008350010053F8040B42F8040B74
:101050008B42F9D11B88138047F23D73ADF83233D0
:1010600047F25073ADF834330423ADF838333368A6
:10107000CDF84133B388D7F80090B7F80480ADF8C5
:101080004533BF79B3798DF8473341220021D2A887
:10109000CDF83A93ADF83E838DF8407312F070FCB2
:1010A00064220021EBA812F06BFC784BCDF89493EE
:1010B000ADF898838DF89A730DF29B3203F110010D
:1010C00053F8040B42F8040B8B42F9D11B881380B0
:1010D0004EF23303ADF8AE3347F20313ADF8B0333D
:1010E0000223ADF8B4332368CDF8B633A388ADF846
:1010F000BA33A3798DF8BC332B68CDF8BD33AB88F8
:10110000ADF8C1334122AB798DF8C3330021F1A88A
:1011100012F036FC0CA8FFF7BBFD2BA8FFF7B8FDBB
:101120004AA8FFF7B5FD69A8FFF7B2FD88A8FFF749
:10113000AFFDA7A8FFF7ACFDC6A8FFF7A9FDE5A87E
:10114000FFF7A6FD524D00244FF0FF324FF0FF3362
:10115000012107A80CF066FF4FF0FF334FF0FF327C
:1011600028460CF0ABFB0B9BDB68012B20D1494AD6
:1011700013700B9BDB68192B10D146494648CB797D
:1011800004938B7903934B7902930B790193CB787A
:1011900000938B784A7809780EF0F2FC28460CF020
:1011A00067FB0B9B9C600A9B64F394330A93CBE729
:1011B000023B162BDDD8DFE803F00C1014181C20BE
:1011C00024282B2E3134373A3D405A5C5E606264ED
:1011D0006600304B01225A70CBE72E4B01229A70E9
:1011E000C7E72C4B0122DA70C3E72A4B01221A71A0
:1011F000BFE7284B01225A71BBE7264B01229A71A7
:10120000B7E7244B0122DA71B3E7224B1C70B0E739
:10121000204B5C70ADE71F4B9C70AAE71D4BDC7048
:10122000A7E71C4B1C71A4E71A4B5C71A1E7194B93
:101230009C719EE7174BDC719BE71848FFF738FD60
:10124000002896D000F12902438B049200F122027B
:101250000392B0F920200292B0F91E200192828BF5
:1012600000920146C21D0E480EF08AFC81E70D482F
:10127000E4E70D48E2E70D48E0E70D48DEE70D48FA
:10128000DCE70D48DAE70D48D8E700BF95500100CC
:101290003C040020FA240020AC4F01003C4E010029
:1012A000414F0100434E01004A4E0100514E0100E2
:1012B000584E01005F4E0100664E01006D4E010068
:1012C0002DE9F04107460E46154600F08FF8C36839
:1012D00004461BB943691A78002A41D10023E36010
:1012E0006368BB4256F8232008DB324B636120461B
:1012F00000F062F84FF0FF30BDE8F081511C6161F1
:1013000092F80080B8F12D0FEFD1911C61615178F6
:10131000A1602D2904D192786AB901336360E4E7B2
:1013200049B9244B63614146284612F041FB00282D
:10133000DDD0C4F80880D4F808802846414612F071
:1013400037FBB8F13A0F636900D070B91B7813B955
:10135000636801336360204600F02EF83F20CBE73E
:101360005A1C42611B788360E5E742783A2A0BD029
:10137000002222611B7813B9636801336360204641
:1013800000F01AF8A068B7E718786268094928B928
:1013900001329742626004DD56F82230C4E904311C
:1013A000EAE761612D783A2D2046D5D100F004F8A6
:1013B0002846A1E774540100074B02681A60074BE6
:1013C00042681A60064B82681A60064BC2681A604F
:1013D000054B02691A60704754010020500100203B
:1013E000801500207C1500207815002000487047EB
:1013F000380100202DE9F04F91B08407009302F0EE
:1014000004030293C2F3C20303F10103DDF8689001
:10141000039205460E46059340F0BA81041D30B193
:10142000072909D86FF01B0011B0BDE8F08F01F05B
:101430000706341DC6F10806009B4FF00008591E30
:101440004FF0040A4FF0FF330193CDF81080474668
:10145000C34653460DB1009A22600598002800F358
:10146000E8809848009A824203D397488242C0F0AD
:10147000E080039AA4EB050E92074FEA9E0000F16C
:1014800003810F2F00F2B180002D00F0058107F1DC
:1014900040020DEB020C019A0CF8200C0CF8102CF9
:1014A000049801300490E7E07A285DD84B280ED8E4
:1014B000472859D829282DD8252852D054D8202853
:1014C0007AD02338D0F1000B4BEB000B74E04C3892
:1014D0002E2849D8DFE800F0704848484848484876
:1014E000484848484B484848484848484859484B65
:1014F0004B595959704B6D487048184B18484882E1
:101500007F4B48484B487F0000204FF0000B4FF0C6
:10151000040A38E02A38C0B2012202FA00F010EAC8
:101520000E0F49D110F0625C2FD110EA020B43D0AC
:101530006046013C5444B4FBFAF40AFB04F4002D69
:1015400061D0A3EB050CA444B4453FF66BAF002873
:1015500068D1042B47D159F8043B23600434042399
:101560002AE0019A013A01924FF0000B24E011F8B1
:10157000010C6C2834D111F8023C00206C2B8346FE
:10158000C5D14FF0080A5346D3E709F1070929F0FE
:1015900007090734F9E802AB24F0070435B10698CF
:1015A0002044B0423FF63EAFC4E900AB08344FF0F0
:1015B000000B4FF0080A534611F8010F002878D0AD
:1015C000BBF1000F7FF470AF2528F5D1019B0133EB
:1015D00001934FF0010B4FF0040AECE7584694E7F3
:1015E00000208346A5E7082B02D06FF015001BE70B
:1015F00009F1070929F00709F9E80223C4E90023E2
:1016000008340823D8E768B9042B02D109F104098A
:10161000A4E7082BE9D109F1070929F0070909F125
:101620000809EDE7059A013A059259F8042B009252
:1016300010E7039A900720D5A4EB050E4FEA9E0011
:101640004FF0010CBEF5007FCFD20F2FCDD8F5B1F2
:1016500007F140020DEB020EC0B2019A0EF8200C09
:101660000EF8102CBCF1000F3FF41AAF60F07F00B1
:101670000EF8200C08F101080137C5F10802043406
:1016800006924FF6DA7E97E74FF0000CDAE7BCF1EE
:10169000000F01D00136EFE7029802360028EBD1A7
:1016A0000098CDE90631FEF7F7FEDDE90631064484
:1016B000E2E7631BB3F5806F97D23DB9A6F108044A
:1016C000E018B1E62C3E010004770100029A286080
:1016D0009B082B709DF81030C2B1EB7085F802802A
:1016E000B8F1000F05D008A80022C5F1010C9742FF
:1016F0000ED1C5F101030DF120094FF0000A01934D
:101700000DF1300B574512D1601B8DE66B70E5E78C
:1017100010F8013B190608D504EB0C0EB64503F092
:101720007F033FF67FAE04F8013B0132DFE7B8F1FB
:10173000000F03D099F90020002A17DB029BD3B1D8
:101740001AF80B2004F8012B0022019B9818204462
:10175000B0423FF667AE99F8000004F8010B00991B
:101760000392204612F0E4F8039A14440AF1010AA5
:1017700009F10109C6E799F8002055F822300093D5
:10178000029B45F822300098FEF786FE421CDCE7FB
:101790006FF00D0048E600BF2DE9F04F97B000AFA5
:1017A00090F802A0D7F880B03B62CBF3C0030446A8
:1017B000FA62BB61894641B9457800780AEB80003E
:1017C00020444D4517D8A0EB0409E378FB61BAF13A
:1017D000000F02D01BF0010F16D1FB6953BBFB6A4F
:1017E0001BB13A6A4946204698474D4628465C3721
:1017F000BD46BDE8F08F461C3046FEF74DFE013079
:10180000304409F10109DCE7237862687A62FA6AF8
:101810009900796104EB8301002A40F000814D4674
:101820000E4601EB0A094FF000084E454CD101EB82
:101830000A0610E01BF0020FD1D023789A007A61DB
:1018400062687A62FA6A04EB8301002A77D14D4616
:1018500001EB0A0690461BF0050F0CBF0223012383
:10186000FB62FB6906EB430A0BF00203BB625645C1
:10187000BCD016F8021B16F8013C54F82390AF4B6D
:10188000994502D3AE4B994536D3BB69002B40D066
:10189000786A0EF04CF900283BD0E9468AB06A46D7
:1018A000A84B53617B6AC2E906314FF4007313847D
:1018B000A54B42F8103FA54800234FF4125100F009
:1018C00013FD023DCD46D2E716F8013BF96254F80C
:1018D0002300FEF7E1FDD7F88430F96A01304BB1FF
:1018E000D7F8883098453EBFD7F8843023F81800E1
:1018F00008F10108054498E7BB6923B1786A0EF046
:1019000016F90028C9D11BF0010F05D1FB6AED1AA9
:10191000ADE7BB6A002BAAD04846FEF7BDFDD7F85D
:10192000843053B1D7F8883098453FBFD7F884202A
:10193000431C22F8183008F10108054497E7BAF172
:10194000000F72D01BF0040672D0D046002607F1BB
:10195000480052463B61B96211F0EAFFB96A3B693F
:1019600001EB0A02BA62FA69F9695200FA60BA6ACE
:1019700002EB41023A610BF00202BA603A69B96ABD
:101980008A4257D162787A621BF0020F32440CBF50
:101990004FEA580100211BF0010FD2B240F09F80A6
:1019A0001BF0040F14BF40460020BB616270A070A2
:1019B000E1703A6A7969FB6A20469847051EFFF68E
:1019C00015AFBB6923707B6A6370FB69E3704146A6
:1019D0003A6AFB6A84F802A007F148009847B0F120
:1019E0000008C0F2B5807B693A6AA9EB0A01C91AFE
:1019F000FB68C91AD7E90A0398470028C0F2AA80F1
:101A0000A84408EB00054FF0000B07F1380AB34576
:101A100067D300213A6AFB6A08469847E6E65646CD
:101A20004FF0000807F1380093E75646D04697E795
:101A3000B04695E7BA6A12F8021BBA6212F8015C66
:101A40003E4A54F82500904202D33D4A90421ED3AC
:101A5000BA6932B1786A7B600EF069F87B68002859
:101A60008CD1BA6802BB08F1280207F1300C08F1EA
:101A70000100944407F1580252FA80F008F102087C
:101A80000CF8101C5FFA88F800F8105C76E7BA6969
:101A90003AB1786A7B600EF04AF87B6800287FF4E0
:101AA0006DAF1BF0010F09D006F1280207F13000DD
:101AB000711C161806F8205CCEB25FE71BF0040F0D
:101AC0003FF45CAF08F1280207F1300008F1010192
:101AD00002EB000808F8105C5FFA81F84EE700207E
:101AE00063E71BF80A3087F8373054F82390D7F8AB
:101AF0008430FBB133F81B803A6AFB6A012107F19D
:101B000037009847002825DB0544B8F1000F06D1BF
:101B10004846FEF7C1FC00F101081FFA88F83A6A4E
:101B2000FB6A414648469847002813DB05440BF101
:101B3000010B6CE7D7F88480DEE700BF2C3E010084
:101B400004770100115101000400000178410100F7
:101B500045464BE6054649E6014B1860704700BF15
:101B60005801002080B505460E46174698460BF0F2
:101B7000CBFC034612F050F9DFF81890044649F800
:101B80000030424630463946A84754F8090003F071
:101B90008BFA00BF080000002DE9F047058B0446D2
:101BA0002807904611D4022905F0070540F0CD80A2
:101BB00020460EF053FA78B10138218B042811D851
:101BC000DFE800F0C3106D85950001290CBF45F0DA
:101BD000100545F02005258388F31188BFF36F8F2A
:101BE000BDE8F08701F0070AAA4500F0A6800027AB
:101BF000B9463E46A368002B00F0BD8041F00801C5
:101C0000218388F31188BFF36F8FA168002900F04A
:101C1000BB800D68002900F0B780D1F804803346FE
:101C200052462046C047002D76D02B6829461D46D7
:101C3000F0E701F007035A1F012A1BD8002221F008
:101C40000701062B276889B2C4E9002209D13B4667
:101C500003E0628B013262831B68002BF9D141F0F3
:101C60000201218320460EF0F9F900287BD041F0D3
:101C7000200177E0042B0AD121F0070189B22183EA
:101C800020460EF0EBF910B141F020012183218BA9
:101C900001F0070AAA4550D00027B946AAE72369F0
:101CA00021F0070141F00601062DD3F800902183B1
:101CB0002DD1B9F1000F40D041F00801218388F304
:101CC0001188BFF36F8F3A492046C84729E021F0B9
:101CD0000701236941F0040189B2042DD3F804906F
:101CE0002183E6D000273E464FF0040A82E721F028
:101CF0000701236941F0050189B2052DD3F8089049
:101D00002183D6D000273E464FF0050A72E7002710
:101D10003E464FF0060A6DE72B4687E7B9F1000F04
:101D2000D1D14FF02003EFF3118883F31288BFF372
:101D30006F8F238B23F008032383258BEA062ED590
:101D400025F01003238305F007056669218B002E1B
:101D5000BFF66FAF00232768C4E9003321F0070105
:101D600041F001012183218B01F0070AAA454FF0C0
:101D700000097FF43FAF002F9BD041F00801218381
:101D800088F31188BFF36F8F002FC7D03D683946A5
:101D90003346524620460EF08DF92F46F4E7AB0647
:101DA0007FF51AAF25F02003238305F00705FFE632
:101DB000E10001002DE9F047DFF8588004460746AE
:101DC0004FF0010914B93846BDE8F08794FAA4F53C
:101DD000B5FA85F509FA05F32E0108EB05156FEA4A
:101DE000030A24EA03042B7B002BEBD058F80630BF
:101DF0001B694BB94644042273682846196807EAF0
:101E00000A0700F05DFADDE7284698470028D9D197
:101E1000F0E700BFE841010030B51049104889B033
:101E2000002211F0D8FB0F4D0F4900220023CDE90D
:101E3000062300240E23CDE90334CDE901440B4BE6
:101E400000944FF4407228460BF008F808492846E1
:101E50000AF022FF204609B030BD00BF751E000009
:101E6000500B0020800600208037002065210000F4
:101E7000C551010001480BF0FBBC00BF5404002019
:101E80002DE9F04780461F480F460EF0B1FA06468E
:101E9000002830D000252846BDE8F087237B73B1A9
:101EA0002368DB680BB12046984723681B69D3B9C8
:101EB000636804221968204600F002FA01361034E3
:101EC0004C45EBD3B8F1000FE5D0002DE2D0284609
:101ED000FFF770FF0546002FF7D000214FF4A470E4
:101EE0000BF0F4FAF1E7204698470028E0D00AFA10
:101EF00006F31D43E2E7044CDFF8109005464FF06F
:101F0000010ADDE794150020E841010008420100C4
:101F1000014B53F820007047F845010008B503460F
:101F200008462BB1044A136000F096FC002008BD5F
:101F30006FF01500FBE700BF5C01002010B5044CFA
:101F4000237813B903480BF093FC0123237010BDD1
:101F5000022500205404002010B5044608480EF065
:101F600047FA5CB1BFF35B8F064B53E8001F0139A2
:101F700043E80012002AF8D1BFF35B8F10BD00BF09
:101F80008C150020901500200020064BBFF35B8FBE
:101F9000014653E8000F43E80012002AF9D1BFF3CD
:101FA0005B8F70478C15002070B5FFF7EDFF084C74
:101FB000084E0546B44200D370BD63685B792BB10F
:101FC00023685B6813B12946204698471034F1E72F
:101FD000E84101000842010010B5044C04492046C4
:101FE0000DF0E2FE034B1C6010BD00BFB4030020E7
:101FF000E445010084150020084A094808B500237B
:102000001370084A1360084A4FF400411360FFF749
:1020100085FFBDE80840FFF7DFBF00BF03250020B4
:10202000ED0301008C1500209015002001460022D0
:10203000014800230DF0D9BEB403002001480DF083
:1020400072BF00BFB4030020024B014618680DF0B8
:10205000BCBF00BF8415002001480DF0F2BF00BFD7
:10206000B403002070B5284B187800284BD0FFF738
:10207000E5FF054690B1BFF35B8F244B53E8001F8B
:10208000013943E80012002AF8D1BFF35B8F204CDE
:10209000204EB4422DD32846FFF7D6FF1E4B1F4CCF
:1020A0001B68002B19DD11F04FFA4FF47A72A0FB78
:1020B000020302FB0131C30BD4E9002043EA414390
:1020C0009B1A4FEAD13140F2E93261EB00019342B1
:1020D00071F1000101D3FFF767FFD4E9003213F576
:1020E0007A7342F10002C4E90032BDE87040FFF7A4
:1020F000B3BF63685B7923B1236829461B68204618
:1021000098471034C5E770BD0225002090150020C7
:10211000E8410100084201008C150020480B002016
:1021200070B50D4D297861B90120FFF7A9FE0B4C60
:102130000B4EB44206D3FFF795FF0028FBD10123D5
:102140002B7070BD63685B791BB1236820469B6868
:1021500098471034EDE700BF03250020E841010057
:102160000842010000212DE9F0470846FFF788FEEC
:10217000044658B340F267684FF0000911F04CFE76
:102180001B4B1C4A1B58136033B11B4B1B68092B9C
:1021900002DD1A480BF06CFB194FDFF860A0002538
:1021A00044B12046FFF706FE044618B94FF0FF3849
:1021B0004FF0FF39FFF756FF064628B9B5B942463A
:1021C0004B4650460BF07AFB3546E9E74FF0FF38B7
:1021D0004FF0FF39D2E72B689B691BB100221146F3
:1021E000284698471035BD42F5D3E8E7054DFAE794
:1021F00008000000881500209015002054040020DD
:1022000008420100E841010013B518480EF0F0F84B
:10221000174B1B787BB14FF02003EFF3118483F34E
:102220001288BFF36F8FFFF71DFF84F31188BFF390
:102230006F8F02B010BD0F4B1B68002BF9D050B947
:1022400000220023CDE900230B484FF40042002375
:102250000BF0AEFEEDE70928EBD1074811F0C7F906
:10226000064802B0BDE810400BF002BB90150020FC
:102270000325002088150020500B00205404002066
:1022800010B5064B1B68044698472146A0600448D9
:102290000DF029FEBDE81040FFF7B6BF5C0100203D
:1022A000B4030020044A054B9B1AB1EBD30F34BF93
:1022B00052F831000020704730410100E841010030
:1022C000084BC31A10B41B114468013323714368CF
:1022D0009A7143681960436801225A7110BCFFF774
:1022E0002DBE00BFE84101002DE9F04F8FB004AFD3
:1022F000C1F34A28B8600D4691467B600C0DB8F1D9
:10230000000F63D0002607F114034FF0040B4FF0C9
:102310000A0AC7F80C80C7E907667E620193CDF808
:1023200008B0CDF800A007F11C03F9683246484612
:10233000FFF732FAB0F5006F03461CD36C468AB043
:10234000D9F8041004AB2648C3E9050140F2FF7137
:10235000D9611A464FF400711984224B42F8103F9C
:10236000214833464FF41251FFF7BEFFA5462C37E4
:10237000BD46BDE8F08FC0F30A0804F11700184409
:1023800020F0070080083B60FFF750FE68F35325FC
:10239000044690B13B68154AC7E9083600F11001C0
:1023A00007F11403F961CDE900A3CDF808B0F9688D
:1023B00007F11C034846FFF7EFF968F353257B68E4
:1023C000B9682A4620460EF04DF8D0E704F1170010
:1023D00020F007008008FFF729FE0446EDE700BF64
:1023E000DA510100040000019041010039040100AC
:1023F0002DE9F04F87B0DDE91269DDE9105A044696
:102400000F4693469846A6B31021CDF80090334668
:1024100052460020CDF81490FEF7ECFF014605F17E
:1024200017000844144B039104F007040BF0070B4A
:10243000E40020F0070003EA412344EA8B148008FB
:102440001C43FFF7F3FD44EA0554054640B13EB195
:102450000399CDF80090334652461030FEF7CAFF7C
:10246000434622463946284607B0BDE8F04F0DF0F6
:10247000F9BF3146D3E700BF00FE0F000EB403B52D
:1024800003AB014653F8042B0448019303F03AF9D7
:1024900002B05DF804EB03B0704700BF77050100A0
:1024A000CA0605D48B064CBF02490349FFF7E6BFB5
:1024B000704700BF73540100195201002DE9F04F1D
:1024C00089B09B46149B06939DF84CA0159B0593E1
:1024D000169B179E049304460D469046BAF1000FD2
:1024E00000F09D8006F4807307930DF09FFF06F0C7
:1024F0000209024600283ED091492046FFF7BEFF60
:102500000746B9F1000F08D016F0440F35D18D49B8
:102510002A462046FFF7B2FF074406F0010353B1F5
:10252000894B8A4953F82A20894B2046002A08BF44
:102530001A46FFF7A3FF06F48073002B49D006F07C
:102540000803002B63D1B8F1000F66D081494246E1
:102550002046FFF793FF0546069B3D44002B6DD1B7
:10256000049B002B73D1F30700F1E4803146204631
:10257000FFF796FFD8E00746C3E7774B18680028B7
:10258000CAD0764B4FF47A791B68B5FBF3F54FF45C
:102590006161B5FBF0F300FB135509FB05F54FF046
:1025A0003C0CB3FBF1F201FB1231B5FBF0FEB1FBC9
:1025B000FCF300FB1E550CFB131109FB05F5009104
:1025C000B5FBF0F56649CDE901E52046FFF756FF7A
:1025D000A2E706F00803EBB1624B634953F82A20E7
:1025E0002046FFF74BFF0546B8F1000F05D05949CB
:1025F00042462046FFF742FF0544BBF1000FABD037
:102600005A495A462046FFF739FF0544A4E74FF0E0
:10261000000BE1E706F00805E6E745469CE7BBF15D
:10262000010F069B06D1002B64D1049B002B7BD0AD
:1026300000250CE0002BF8D04D485CE04D48069B8F
:102640004D4922460DF042FA049B002B68D0DFF87A
:102650002C81DFF82C91049F3146102F204628BF93
:102660001027FFF71DFF4FF0000B5D4545DC059B74
:1026700049461A782046FFF701FF4FF0010B1BF087
:10268000070F03D141462046FFF7F8FE5F453BD9CF
:10269000059B494613F80B202046FFF7EFFE0BF190
:1026A000010BBBF1100FEAD1364920464FF0000B69
:1026B000FFF7E4FE5A46059B9A5CA2F120015F29D0
:1026C00028BF2E2230492046FFF7D8FE0BF1010B20
:1026D000BBF1100F1DD01BF0070F03D14146204660
:1026E000FFF7CCFE5F455A46E5D841462046FFF746
:1026F000C5FEEBE71F485546A1E741462046FFF7D8
:10270000BDFE0BF1010BB0E720492046FFF7B6FEF6
:10271000C5E7059B3B440593049BDB1B04939AD1BF
:10272000BAF1000F7FF41FAF204609B0BDE8F04FAB
:102730000DF014BF064A05492046FFF79FFE15E736
:1027400021520100255201000846010027560100D0
:102750001C5201004A5201009C15002098150020CF
:102760002E5201001C4601004E520100545201003D
:10277000AD05010077050100055700006152010019
:102780005952010063520100345C01005F520100A4
:102790002DE9F0410F884B688E6886B005460C46DF
:1027A0009046C7F382175BB1144A9B1A43F3CF01DB
:1027B000002920DB2078C0F3C200FFF773FD034639
:1027C0002146608851F8102B0197C2F34A22002A53
:1027D00001EB0204C0F30B1008BF00210022CDE979
:1027E0000408CDE90214009231462846FFF766FE40
:1027F00006B0BDE8F0810023E2E700BF30410100F0
:1028000073B542F20F738B4228BF0B4605680F4A1F
:102810000446052168460BF06FFD63680C495B6850
:1028200006460B2228460DF08CFE63683246694648
:1028300028465B680DF085FE636806495B681B22CD
:1028400028460DF07EFE02B070BD00BF145001009E
:102850008152010065520100074A00210123904284
:1028600006D8064A01B901231360054B186070476A
:1028700040085B000121F2E740420F00981500205C
:102880009C150020014B01221A707047042500207E
:10289000014B002019607047B4150020024B03481B
:1028A00001221A700DF05ABE052500204C46010089
:1028B0000148FFF7A5BF00BF4C46010010B5064B0D
:1028C00018680C46FFF724FB21460346BDE810407C
:1028D00002480F22184700BFB41500204C460100E3
:1028E00010B9074B18707047064B1B781BB141F2AB
:1028F000883010F0BFBAA42000210AF0E7BD00BF65
:1029000004250020052500202DE9F843DFF8749008
:102910001D4F80460E46042499F8005095B909F0E1
:102920009FFF28463246414609F04CFF054609F014
:10293000A1FFE5B101233B7099F8003073B930462F
:10294000BDE8F88332464146002009F03BFF0546CA
:10295000EFE72046FFF7C4FF651E2C46002009F074
:1029600075FF0028EBD03B78002BF2D1E7E73B78EE
:10297000002BE4D0013C2046FFF7B2FF3B78002B50
:10298000CAD1DCE70525002004250020014B0360A7
:10299000002070475C46010008B5034A034B08213C
:1029A0000DF06DFF002008BDB95201001F7001003D
:1029B00010B5044609F08EF8084A0346082120465F
:1029C0000DF05DFF064A204608210DF058FF05482E
:1029D00021460BF0F9F8002010BD00BF4E53010056
:1029E0006D530100E9290000F0B59BB004460D4687
:1029F000D0F8AC6010F0DFFA024611F00DFA374B58
:102A00001958374B002A18BF1346CDE90043354A01
:102A1000354B28468C4218BF1346344A08210DF026
:102A20002EFFD4E90A23CDE9022394F90E30009356
:102A3000237B2F4A082128460DF021FF202212A9CE
:102A400020460AF039F9626F0092034608212846B1
:102A5000284A0DF014FF06A9204610F0C3FA18BB4F
:102A60000CA810F0C9FA10BB069FDDF81CE0642129
:102A7000A7FB010CDDE90C2301FB0EC1FDF790FB68
:102A80001D4A00903B46082128460DF0F8FE05A996
:102A9000204610F0A0FA034678B1184A08212846CB
:102AA0000DF0EDFE1BB0F0BD0CA810F0A5FA144A15
:102AB000082128460DF0E3FEE9E7059A6423B11AE0
:102AC000CDE900214B430F4AB3FBF6F30821CDE9D2
:102AD0000263284633460DF0D2FEE3E7080000000B
:102AE0007753010061520100FB6501007A53010038
:102AF00086530100B2530100C95301001154010073
:102B0000EE5301003E540100F0B5002593B0044699
:102B100029460AAF1C220BA810F032FF144E1A22CD
:102B20002021384610F02CFF214612480BF04CF8BB
:102B300009AA4FF40061304610F041FA0999642265
:102B4000C1F5006042434FF40063D20ACDE90403AB
:102B5000CDE9023106922046CDE90057064AA6F19A
:102B6000400308210DF08BFE284613B0F0BD00BFD6
:102B7000804F0020ED2B00007554010010B5044675
:102B800010F0DEF8034A0346082120460DF077FED8
:102B9000002010BDBE54010073B5134600220192FF
:102BA000044601AA58680A2101F02CFB019D95B941
:102BB00020EAE0744FF40046294640F2E7304FF433
:102BC0007A720023C4FB0601FDF7EAFA0AF07EFCE4
:102BD000284602B070BD2B46034A012120460DF065
:102BE0004EFE019DF4E700BFD4540100F0B5044649
:102BF000D0F8AC6089B00D4607A910F0ECF9034697
:102C000030B1104A082128460DF039FE09B0F0BD58
:102C1000204610F0D0F90C4F079A002818BF07463D
:102C2000B11A6423CDE902214B43CDE90076B3FB11
:102C3000F6F3064ACDE904630821234628460DF041
:102C40001EFEE3E71154010077530100F454010024
:102C50002DE9F04387B00546684609F011FE009E55
:102C6000184A194FDFF86480DFF86490142303FBDF
:102C70000066082128460DF002FE009CB44203D3F2
:102C8000002007B0BDE8F08323680BB11A7832B991
:102C900023463A46142101A80BF02EFB01AB424615
:102CA000082128460DF0EBFD204610F0E8F8094B0E
:102CB000094A002808BF4B46082128460DF0DFFDD1
:102CC0001434DBE71656010020560100255601009A
:102CD0000D56010007560100935C01008B1E022B6C
:102CE0002DE9F04107468846144637D8606810221F
:102CF00000210BF0A3FBB8F1020F064607D1264ACC
:102D00002023082138460DF0BAFD336816E00A2268
:102D10000021A0680BF092FBC5B21F4A2B46082188
:102D200038460DF0ACFDB8F1040F1AD0102D0DD0BF
:102D3000202DEAD0082D0CD13378DBB2174A0821B8
:102D400038460DF09CFD0020BDE8F08133889BB231
:102D5000F4E7134A082138460DF091FD6FF0150095
:102D6000F2E7E068102200210BF068FB0D4A0346F1
:102D70000446082138460DF082FD102D06D0202D86
:102D800007D0082DE5D1E4B23470DCE7A4B234807A
:102D9000D9E73460D7E700BF5956010084560100D7
:102DA0006E560100955601002DE9F04F584BDFF8A3
:102DB00064A191464FF0FF35012285B00746884651
:102DC0001A6020262C46494652464046FEF778FABD
:102DD000411C07D16A1C52D14F4A012138460DF0DF
:102DE0004EFD1DE0732820D0772833D0612817D1FD
:102DF000DFF828B11022DBF8000000210BF01EFBE9
:102E000005460028DFD111F007F8454B1B58162B5B
:102E1000D9D1DBF80030434A012138460DF02FFDAF
:102E20006FF0150005B0BDE8F08FDFF8F0B00022BC
:102E3000DBF8000011460BF001FB04460028C2D16C
:102E400010F0EAFF364B1B58162BBCD1DBF80030D4
:102E5000354AE1E7DFF8C4B00022DBF80000114694
:102E60000BF0ECFA06460028ADD110F0D5FF2C4B44
:102E70001B58162BA7D1DBF800302C4ACCE7631C7B
:102E800001D12B4AA9E75FFA86F8C6F3C406002CE5
:102E90003CD06B4629461A46A6EB050C0CE0B8F16F
:102EA000100F1DD0B8F1200F20D0B8F1080F2AD193
:102EB0000878187031443344A64203D80CEB010063
:102EC0001028ECD9102CA14628BF4FF01009294634
:102ED0004B46384601F0D6F81035A4EB0904D6E786
:102EE000088880B21870000A5870E3E70868187004
:102EF0004FEA102E83F801E04FEA104E000E83F8DF
:102F000002E0D870D6E70B4A082167E7204689E738
:102F100050010020E3560100EA5601007815002018
:102F20000C000000A9560100BC560100CF5601005C
:102F3000075701006E56010070B5104E04463378F5
:102F40000D4681B12BB1BDE870400D4A01210DF055
:102F500096BC012333700B4A082120460DF08FFCEC
:102F60000123337004E083F001033370002BF2D1AE
:102F700029462046BDE870400DF0A6BC162500206D
:102F8000215701005C57010070B504463C480378A6
:102F9000182B02D10B78112B31D0013A0B468D182A
:102FA000AB4225D18B5C0A780370A2F13003092B68
:102FB000344C04D922F02003413B052B04D823686C
:102FC0003149CA54013323602368022B34D11022C3
:102FD0002D4800210BF032FA2C4A136803F8010B3C
:102FE00013602B4A1368013313600023236023E02E
:102FF00013F8016B182ED3D11E78112ED0D1244D89
:10300000244A2B68082120460DF039FC2046002177
:10301000FFF792FF204B187870B9204A2B6811688F
:10302000042B0ADC08B111602B6013F003010BD1F3
:10303000126813681BBA136070BD086800BA41F8C3
:10304000040B043B0120EBE75B4203F0030358BF92
:103050005942022904D1126813885BBA9BB2EAE78D
:103060000329E9D1106802681104C2F3074301F48F
:103070007F010B4302F47F4213430360DCE700BF90
:1030800017250020B815002019250020C4150020A0
:10309000BC1500208657010018250020C01500200F
:1030A0002DE9F84F0C462B49DFF8AC80DFF8AC90E7
:1030B000DFF8ACB000230B602A4988F800300646E0
:1030C0000B601546012C2F4655F804AF1ED902227D
:1030D0004946504610F079FC80B99AF80220003A2F
:1030E00018BF0122924420490222504610F06DFC84
:1030F00030B9012388F80030013CE3E70022F1E712
:1031000049465046FDF7B6F9A8B9043700221146E2
:1031100078680BF01DF9154B00221146186078688D
:103120000BF016F9124B134918603046FFF704FFF5
:103130000020BDE8F88F9AF800202D2AE6D19AF8F1
:103140000120002AE2D053465A46082130460DF0AD
:1031500096FBD1E7B815002018250020A0570100E4
:10316000A6570100BC150020A3570100C41500207C
:10317000C0150020892F000007B50A480FF07FFE18
:1031800060B1094A074912680848042300930123E3
:1031900000F032FE002003B05DF804FB6FF0120077
:1031A000F9E700BF3C3F01009447010008420100DD
:1031B00010B54468C4E90012A36042684023D36498
:1031C00002F15803136300230821C2E90E33C2E958
:1031D0001133C2E90633C2E90933D162146853637B
:1031E00002F150011364116153611362C2F8D030CF
:1031F000A36823B11B6C13B1044920469847A36808
:103200001B6A0BB120469847002010BD1132000008
:103210002DE9F74304460D468368DB6B03B19847FD
:10322000A368DB6A0BBB4FF0000905F13008EA6CBC
:1032300001A940460DF01FF80746002836D0A368C4
:1032400001991B693BB3024620469847064628B3BE
:10325000314640460DF02EF8B7424FF00109E6D056
:10326000D5E901310020984703E02046984700281F
:10327000D9D1A368DB6943BB05F11007EA6A01A94C
:1032800038460DF04BF8064630BB20460DF0ACF941
:10329000C5F8D0602BE06FF05706D9E701464046ED
:1032A0000DF008F8B9F1000FE3D0D9E7144A15483A
:1032B00002210DF027F9A3681B69002BF2D001222F
:1032C0000DF1030120469847ECE720469847002877
:1032D000D2D103B0BDE8F083A3680199DB685BB18C
:1032E000024620469847014638460DF037F8D5E9A2
:1032F000013101209847ECE76FF05701F4E700BF78
:1033000007590100D041010010B581680446083119
:1033100001F0ACF9A168034A20460831BDE810402D
:1033200001F04AB94959010038B58368D3F86832C9
:10333000DB0704461DD4C0690DF0ECFF606803682C
:103340005B689847054620B9E0680EF0B8F9A368B5
:103350001D71A3685B6B13B1294620469847A3688B
:1033600010F05AFD0022C3F81023034B185801F047
:103370009BFE6FF00F05ECE70800000001490DF01F
:10338000D5B900BF73540100F7B504468068D0F882
:1033900068325A070D4605D500210DF0EBF9E068BB
:1033A0000EF05FF9E368DB6873B9002D3BD0A668C7
:1033B00006F1460738460DF0B3F9002835D03946F6
:1033C00006F5A370FDF760F8A268E0680DF106034A
:1033D000463229460EF048F958B9A06800F5A371A5
:1033E0004630FDF751F8A06846300DF099F9ADF878
:1033F000060020460DF05DFDA368D3F864329B06FD
:1034000003D50B4960690DF091F9204600F062FF89
:10341000A268BDF80630A2F84230A2682046A2F8A1
:1034200040300DF0ABFC03B0F0BD86F84601CBE7B1
:10343000BF4201002DE9F04FA7B0044654220021FD
:1034400011A810F09DFA0023CDE90533A3682046AA
:10345000463302930DF034FD20460DF077FC10B991
:103460006069FFF78BFFA06814220021083010F07C
:1034700087FA20460DF00FFCA168E068B1F8402003
:10348000463100260EF027F920460EF0A6F94FF03F
:10349000FF37B24603960DF14408B3463546B146B0
:1034A000DDE90532012A6DD0132B6ED85FBBBBF16D
:1034B000000F0AD020460EF0B1F9A268142346325C
:1034C00011A90DEB03000DF065FAB9F1000F0CD056
:1034D00099F81130FE2B08D1059B26AA02EB830236
:1034E00052F8542C0AB101330593A068059D436935
:1034F000002B40F0B680CEB1C3689E422DD00D9611
:1035000000F1080524E0029A0223414606A80DF0C6
:1035100041FA0699D8F804200292034631B10129F4
:103520000AD148B16C4A20460DF07CFD6FF00705CA
:10353000284627B0BDE8F08F059B002B34D0D8F883
:10354000000001F0B3F898B166B1A5680D96083592
:103550000CAE0FCE0FC533682B602046FFF7D4FEAC
:103560000125E5E75D4A012120460DF05BFDDDE721
:10357000059BCBB1D8F800202946204601F048FA37
:10358000022809D1059B132B91D9069B022B8ED1C2
:10359000534B544A0121C6E7032805D0059B01334C
:1035A00005934FF0010B7BE7039B33B9D8F800106C
:1035B00007AA48460DF0E5FA054608F10408013F60
:1035C0009DB3EB68BBF1000F08D0F3B120460DF0BE
:1035D00077FC20460DF0D2FB434AC4E7ABB1A368A9
:1035E000DDF814A0AE4603F1080CBEE80F00ACE80D
:1035F0000F00DEF80030CCF80030AB682BB96B7CE4
:10360000FE2B04BF2F7C07F1FF37D5F804C0BCF1B7
:10361000000F08D0AE46BEE80F000CAE0FC6DEF8B5
:10362000003033606646A94603E0059B53B1012391
:103630000393069B17B9022B7FF432AF059B01332E
:1036400005932DE7A368DB6913B1DB68002BEED18E
:10365000264B0093264A119B012120460DF0E2FCE7
:10366000E5E7037EA5EB0A05B3B1417E4FF6FF7295
:10367000FF2918BF0A469D4202D313449D420BD92D
:1036800083681C4A012120460DF0CCFC2046FFF740
:103690003BFE6FF015054BE701210DF060F8A068C7
:1036A00000F53F700DF07FF8A36811AA294602EBE0
:1036B0008A025B69204698470546A0684FF0FF32B2
:1036C0004FF0FF3300F53F700DF03DF8A06800218A
:1036D0000DF045F82CE700BF575901006B59010068
:1036E000CC590100FC52010089590100B859010070
:1036F000AB5C0100F059010010B5836802221A7119
:1037000083689B6B0446BBB90CF0CBFF8368D3F88E
:103710006832DB040BD50321084B094A0DF082FC0B
:10372000A0686FF4805100F51A700CF0D4FF2046A9
:10373000BDE8104000F022BF10BD00BF0B5A0100D1
:10374000275601002DE9F04F04468068B1B00121F1
:1037500000F51A700CF0B0FFA3681B79022B20D182
:1037600000230993A36860689E6B03681D6909AB19
:103770000EB310221BA9A847099B93B1A068012191
:103780000CF0EDFF099A1BA92046B047A068002164
:103790000CF0E5FFA3689B6B002BE3D12046FFF7FD
:1037A000ABFFA0686FF0010100F51A7031B0BDE801
:1037B000F04F0CF090BF01220DF12301A847099BA7
:1037C000002BEED09DF923209DF82310A368002A3A
:1037D000C8DB5A79032A00F29482DFE812F0040071
:1037E0008102980292020D297CD00A2958D0B3F8A0
:1037F00068226FF3CA02A3F868220929A06800F0C2
:1038000086803DD80029ADD0082900F0F881034614
:10381000D3F864229207A5D501391629A2D801A2AE
:1038200052F821F0B13D0000393C0000413C00005D
:10383000313C0000A53D00005F3C00006537000002
:10384000653700006537000065370000673C000001
:103850006F3C000065370000993C000065370000B0
:10386000A33C0000653700006537000065370000A5
:1038700065370000A73C000065370000D13C000020
:103880001B2941D07F2900F0C681A1F120025E2AC8
:103890000346BDD801210CF06DFF9DF82310B7E061
:1038A000D3F86822C2F3C7022AB1D3F86822C2F360
:1038B000C7020A2AACD1B3F8682261F3CA02A3F89E
:1038C0006822A568B5F84010C1B928460CF052FF2F
:1038D000E0680DF0C6FE6069FFF750FD2046FFF777
:1038E0000BFF3FE7D3F86822C2F3C702002AE2D0F9
:1038F000D3F86822C2F3C7020D2ADBE72046FFF7A0
:1039000099FDC5F81403E9E7012343712AE7D0F8CC
:1039100064329B077FF526AF01210CF02BFFA068D6
:10392000B0F84030FF2B3FF41DAFB0F8422000F15B
:10393000460100F5A3700FF0FBFFA368B3F8422027
:103940001344002583F84651A2681BA9142302F5ED
:10395000A3720BA80DF01EF80B9914293FF602AFC5
:1039600030AB03EB810343F8545CA368B3F8422007
:10397000134493F84530202B02D0093B042B4BD83D
:1039800000294CD100250A950A9B30AA02EB83033B
:10399000002653F854AC50460CF0C2FEB3468146A4
:1039A000B046374616AA3946284600F0F1FB0346D2
:1039B000002840D1012EA76865D10A9B30AA02EBEE
:1039C000830353F8540C0CF0ABFE07F108020646D3
:1039D0004146284600F0DCFB056828460CF0A0FEB6
:1039E000864205D0821B92B2A91920460DF061FBD8
:1039F000A068B0F84230034493F84630202B31D011
:103A0000093B042B2ED9D0F86432DF072FD42021B4
:103A1000204600F07BFDA5E60129B3D9013900203D
:103A20000CAB009301900AAB1BAA0DF0D5F805462C
:103A30000028A9D196E61B6803934A4651461846CA
:103A40000FF0C3FF60B9039B1846FCF725FD5845EE
:103A500038BF58461FFA80FB002E08BFB846013613
:103A600001379FE7012120460DF0BCF97AE60021DD
:103A70000CF08AFE2021204600F048FDA0680121BC
:103A80000CF082FE6EE604907FF66CAE0A9A30ABC4
:103A900003EB8202C14652F8543C039318460CF0E3
:103AA0003FFE049B05903B860496A2684946083277
:103AB000284600F06DFB039BD0F800A009F1010936
:103AC0004BB1BAF1000F06D0059A194650460FF0D7
:103AD0007CFF0028E9D1A168BAF1000F4ED1A1F80E
:103AE00030A0049B013B0493DFD16069FFF746FCE3
:103AF000204600F043FD0A9B30AA02EB830308F145
:103B0000010A53F8540C0CF00BFE414611AA8146F1
:103B1000284600F03DFB0746A0683968FF2200F503
:103B2000A3700FF064FF3B6803934FF6FF77B8462E
:103B300016AA514628460AF1010B00F029FB00287D
:103B400051D0A168036801F24511002211F801EF7C
:103B5000985C704503D110B101324245F6D1B9F1FC
:103B6000000F01D04A4507DBBA4206F1FF36A8BF75
:103B70003A46012E97B236D0DA46D9E798480691F0
:103B80000CF0CEFD069907914A8D00EB0B07BFB2F2
:103B9000121A504692FBF7F292B206920CF0C0FD58
:103BA0000799069A3F1A088E00F1010CA1F830C05F
:103BB000B0FBF2F102FB110080B2BFB260B9884BDA
:103BC000884ACDF800A0062120460DF02BFA394690
:103BD000204600F069FB84E7834A534606212046CD
:103BE0000DF020FAF3E7002F3FF4BCAD0399A7EBEB
:103BF000090292B2494420460DF05BFAB2E5D0F8D2
:103C000064329E077FF5AEAD01210CF0B3FD204676
:103C10000DF070FAA6E5D0F864329D077FF5A2ADED
:103C200001210CF0A7FDA368D3F864321907EED484
:103C300020460DF040FA95E520460DF04AF991E551
:103C400020460DF03DF920460DF080F810B960696E
:103C5000FFF794FBA06801210CF08CFD3EE62046A6
:103C60000DF040F97EE520460DF047F97AE5D3F8EE
:103C700064329B0603D55D4960690CF057FDA3686B
:103C8000D3F864329F0603D5594960690CF04EFDA4
:103C9000204600F073FC65E500212046FFF774FB29
:103CA00060E50121F9E720460DF003F920460CF00C
:103CB000F8FC0121A0680CF05DFDA368D3F8643224
:103CC0009E067FF54FAD4B4960690CF02FFD49E52D
:103CD000204600F079FBA06801210CF04BFD41E586
:103CE0005B2902D102225A713CE5D3F864329D0768
:103CF00006D5622907D14FF0FF3120460DF09BF821
:103D0000A3680022EFE76629FAD10121F5E7002236
:103D10005A71A268D2F8643298077FF523ADA1F1F9
:103D200031031B2B3FF61EAD01A151F823F000BF5C
:103D3000AD3D0000B93D0000CD3D0000A13D0000BB
:103D40006537000065370000653700006537000003
:103D500065370000653700006537000065370000F3
:103D600065370000653700006537000065370000E3
:103D7000A33C0000993C00005F3C0000393C00007F
:103D800065370000A53D000065370000B13D00002B
:103D9000653700006537000065370000BD3D000055
:103DA0000323537120460DF08BF8DBE4032353719A
:103DB00020460DF07EF8D5E403235371A068D0F8B7
:103DC000641201F0010181F0010159E603235371EE
:103DD000A368D3F864329B077FF5C4AC28E700BF23
:103DE000605201004F5A010027560100C4420100F1
:103DF000C9420100BF4201002DE9F043044680683A
:103E00008846D0F8101389B015461F46002967D19F
:103E10004FF446720FF0B4FDA36822681A60E068A0
:103E20000DF0C1FCA06800F53F700FF06AFA4FF486
:103E30002B794FF41B76A06830440FF03CFDA0684E
:103E4000002283190121484410360FF00AFDB6F50F
:103E50002B7F09F11409EED1A36900261E60A0682A
:103E6000022100F51A700CF027FCA36850225A8535
:103E7000A36818221A85D4F80890D9F800000CF02D
:103E80004FFC89F82C00A368174A66F38205C3F833
:103E900064526068036841461D682346A84705468A
:103EA000D0B9A36801221A71D4E90A0100220023C3
:103EB000CDE906230E230393109B0495CDE90173EE
:103EC00000940A4B4FF4006208F0C8FFA368C3F8DF
:103ED0001003616A08F0E0FE284609B0BDE8F083EF
:103EE0006FF07705F8E700BF4B070100613F000066
:103EF00010B583681A79012A04462BD1D3F86822B9
:103F0000510408D5D3F86422520704D40146DA6B71
:103F1000C0690DF0E8F9A0684FF0FF324FF0FF33B1
:103F200000F53F700CF00FFC2046082100F00EFA5F
:103F300020680CF0F5FB18B1084960690CF0F6FB3D
:103F40002046FFF7D9FBA06800F53F700CF02BFC72
:103F5000002010BD6FF08500FBE700BF7254010028
:103F60002DE9F04104468068154600F51A700029D5
:103F700037D04FF480410CF09FFBA368DD6360688D
:103F8000036800219B68984700284BD12046FFF723
:103F9000AFFF002846D1244E244FDFF89480A0685C
:103FA00000F52B704FF0FF324FF0FF3303210AF082
:103FB00039F80546A0684FF0FF324FF0FF3300F5A7
:103FC0003F709DB10CF0BFFB20462B46194A0121E2
:103FD0000DF028F8A068BDE8F04100F53F700CF046
:103FE000E2BB6FF480410CF076FBC6E70CF0ABFB54
:103FF0003246022120460CF07DFB3A4629462046F7
:104000000CF078FB2046424601210CF073FB6068FF
:1040100003685B6903B19847A06800F53F700CF036
:10402000C2FBBCE7BDE8F081293300004537000042
:10403000AB070100555A010010B50D4A044608218E
:104040000CF01DFC20460B4A08210CF018FC204601
:10405000094A08210CF013FC2046084A08210CF0FC
:104060000EFC2046064A002100F0A6FA002010BDF2
:104070006C5A0100AA5A0100095B01005D5B010056
:10408000F75B0100F8B51E4617460B462F4A08217C
:1040900004460CF0F4FB6EB33B782D4A0821204611
:1040A0000CF0EDFB01256A0704D12A4A08212046BD
:1040B0000CF0E5FBAE4223D97B5D254A0821204662
:1040C0000CF0DDFB0135102DEDD1234A08212046EF
:1040D0000CF0D5FBD6B91F4A082120460CF0CFFBC7
:1040E0000125AE422B4613D81A4A082120460CF06F
:1040F000C6FB18E0194A082120460CF0C0FB012538
:10410000164A082120460CF0BAFBDBE700252B46B7
:10411000FB5CA3F120025F2A28BF2E23104A08214E
:1041200020460CF0ACFB0135102D07D06B07D8D121
:10413000084A082120460CF0A2FBD2E72046094A93
:10414000BDE8F84008210CF09ABB00BF0D5C0100EF
:104150005952010061520100635201005F52010097
:10416000345C0100145C010010B5044613460A4695
:104170000146064801F0C6FA23691B7923B120469F
:10418000BDE810400CF0A6BB10BD00BFED0801005B
:1041900038B50B46154648B91449154A521AB3EBBF
:1041A000920F05D251F82350284638BD84680CB9C7
:1041B0000025F9E70F4A94420AD30F4A944207D2E6
:1041C00018462268294690472B68002BECD1EFE770
:1041D0000A4A944202D30A4A944205D3246814221C
:1041E0005343E518E358F0E70133F8E7384201009C
:1041F0006C42010080420100804201006C420100DB
:1042000080420100F7B51646027800232D2A0446A5
:10421000019305D16FF015033360002003B0F0BDAA
:104220000FF0FAFD0B4F0546C3510A46204601A97F
:104230000AF004F9EB59222B02D16FF02103EBE7CE
:10424000002BE7D1019BA342E4D01B78002BE5D0E3
:10425000E0E700BF0C0000008368D3F864329B06DF
:1042600003D5024940690CF051BD7047CF420100AF
:1042700001490CF04BBD00BF735401000A1E0DDC58
:104280000ED042238168D1F86412890608D5002A2D
:1042900004494069B8BF52420CF038BD4123F1E7F0
:1042A000704700BF305C01000A1E0DDC0ED04423B5
:1042B0008168D1F86412890608D5002A044940694A
:1042C000B8BF52420CF022BD4323F1E7704700BF54
:1042D000305C01002DE9F0478568DFF868900446FE
:1042E00005F14600FCF7D8F8002395F82C7086B24B
:1042F0009846A268558DED1BB54209DB002E1FDDE7
:10430000463360691049BDE8F0471A440CF0FEBC22
:104310001D442A44463392F846A082F84680A2689B
:1043200060691A4449460CF0F1FCA3682B4483F8F9
:1043300046A0A3685B8DDB1BF61A00272B46D8E747
:10434000BDE8F087FC5201002756010008290A4603
:1043500017D8836893F82E10914212D083F82E203C
:104360008368082AD3F8643205D0990609D505492F
:1043700040690CF0CBBC9B0603D5034940690CF0A7
:10438000C5BC7047375C0100D442010038B50D460A
:1043900009780446FFF7DAFF6A78072A11D8A3687C
:1043A00093F82F1091420CD083F82F20A368D3F8F4
:1043B00064329B0605D560690249BDE838400CF0BF
:1043C000A5BC38BD405C0100F8B58368B3F8402057
:1043D0000446002A55D0B3F84210002951D0453187
:1043E00003F146050B441846A84206D3014611F8CE
:1043F0000169202E3CD0A8423CD286B29DB2AB1BB4
:104400009BB2591C471CD21A014438460FF09EFA41
:10441000A268B2F84030711B13FA81F3A2F8403061
:10442000A368B3F840201344002283F8462009B261
:1044300020460CF0D7FCA368D3F864329A0603D563
:10444000104960690CF062FC3B460F4A0821204687
:104450000CF0E8FD2046FFF7FFFEA368D3F86432B6
:104460009B060ED560690949BDE8F8400CF04EBCCA
:104470000846B9E7014611F80169202EBDD008466B
:10448000B9E7F8BDD942010027560100DD4201001D
:104490002DE9F04104460D4617460AB1FFF7DCFE50
:1044A000A368B3F84220D3F86412463213444A0793
:1044B00021D51846FBF7F0FFDFF848800646A6B97D
:1044C000A368B3F84020A3F84220A0680CF02BFCAE
:1044D00020B107B115B16069FFF7CAFE69422046F5
:1044E00009B2BDE8F0410CF07DBC606941460CF0BA
:1044F0000DFC013EE3E7044A082120460CF092FD42
:10450000DEE700BFFB6501002756010013B5836895
:104510008DF80710D3F864220446D00725D5B3F8E8
:104520004210B3F840208A421FD0481CA3F8420032
:104530000B449DF8072083F84620A368D3F8641243
:10454000890710D5D3F8643260690B4913F0040F62
:1045500018BF2A220CF0DAFB20460CF0F7FB10B152
:104560006069FFF785FE02B010BD01220DF1070161
:1045700020460CF064FDF6E7345C010010B583685A
:10458000094A1B68044602210CF04CFDA368D3F8CD
:1045900064329B0707D52046FFF79CFE2046BDE806
:1045A00010400CF0FABB10BD2756010001490CF079
:1045B00027BF00BF735401002DE9F04F0E460021C4
:1045C00089B0044617460D4603AA304601F101089A
:1045D000FFF7DEFDB0B995B127B13A460821204674
:1045E0000CF020FD1E4FDFF87C90DFF87CA000214E
:1045F00003AA304601F10108FFF7CAFD60B909B00E
:10460000BDE8F08F006810B1FBF746FF80B285422D
:1046100038BF05464146D7E703688BB11A787AB1AF
:10462000D0F804B04A46CDE9005308213B46204665
:104630000CF0F8FCBBF1000F04D16069FFF7B6FF86
:104640004146D5E7524620463B4608210CF0EAFC9D
:104650006A1D92B2594620460CF0DFFEF0E700BF1B
:104660005E5C0100495C010054520100F7B50F681F
:1046700005460E46A7B13846FBF70EFF84B2094B3C
:1046800000932846084A3B4608210CF0CBFCE21C6C
:10469000716892B2284603B0BDE8F0400CF0BDBE90
:1046A0003C46ECE75A5C0100505A010010B507493E
:1046B0000446FBF7DFFE38B105492046FBF7DAFE7A
:1046C000B0FA80F0400910BD0120FCE7505C010009
:1046D000535C010010B58368D3F864329B0604462E
:1046E00003D5064940690CF00FFFA36850225A8594
:1046F000A36818221A85002010BD00BFE142010006
:1047000008B58369034A1B6808210CF0B8F800203B
:1047100008BD00BF615C01002DE9F3410F4A104C58
:10472000104EDFF84480082105460CF0A8F800235D
:10473000B44203F1010703D3002002B0BDE8F081C9
:10474000626A0192A268126800929BB242460821F6
:1047500028460CF094F830343B46E9E7715C0100E0
:104760000842010038420100895C010008B5024995
:104770000CF092F8002008BD745401007FB50F4E74
:1047800004460025A268E0680DF10E0302F5A3724D
:1047900001210CF069FFBDF80E00A36850B103F5CC
:1047A000A373009332462B46082120460CF067F88D
:1047B0000135E7E783F8460104B070BD9A5C01005B
:1047C00010B504460CF078F8034A03460821204649
:1047D0000CF055F8002010BD9C570100022907B5C8
:1047E0000DD1536801930E4B009313680D4A0121BC
:1047F0000CF045F86FF0150003B05DF804FB83681A
:10480000094AD3F8643213F0020F4FF00801074B46
:1048100008BF1346064A0CF032F80020ECE700BF50
:10482000B15C0100A85C0100A45C0100035101001F
:10483000C65C010010B58368D3F864329A0604465A
:1048400003D5074940690CF05FFEA368D3F86432D2
:104850009B0603D5034960690CF056FE002010BD8D
:10486000E8420100ED420100F0B5012985B004469F
:104870000CD053680193604B009313685F4A012189
:104880000BF0FDFF6FF0150005B0F0BD8368D3F8A5
:104890006432990603D55A4940690CF035FE6FF031
:1048A000F9012046FFF7EAFCFA212046FFF7FCFC5D
:1048B000A06800254FF48072294600F5A3708DF89A
:1048C0000B500FF05DF84F4960690CF01DFE6069F8
:1048D0000CF000F84FF47A766068036801221F69D3
:1048E0000DF10B0103ABB847039BF3B9013E4FF445
:1048F0007A70B6B20EF0BEFA002EEDD1A368D3F8EE
:1049000064329B0603D5404960690CF0FDFDA36845
:1049100050225A85A36818221A8520463B4A032153
:104920000BF0ADFF6FF00700AEE79DF80B20A3681A
:104930001B2A53D093F846111B29CDD1522A4DD1B1
:104940005A19002382F84631A66896F847215B2A57
:104950002BD106F24710022510F8011F2A463B29E9
:1049600005F10105ADB223D1FF2AC7D002F5A3722C
:1049700016FA82F1002211F8010F18BB86F84601E1
:10498000FA2AA16828BFFA224A85FA2BA26828BF12
:10499000FA231385A368D3F864329A0603D51A491B
:1049A00060690CF0B1FD00206EE786F84631A5E79E
:1049B00003EB8303303901EB4301B5F5807F8BB204
:1049C000CAD19BE7013502EB8202ADB2303800EB71
:1049D0004200B5F5807F82B2CDD18FE72B440135FF
:1049E000ADB2092D83F846217FF676AFA368002289
:1049F00083F8462182E700BFB15C0100A85C01009A
:104A0000F3420100115D0100F7420100D75C010093
:104A10002DE9F04F074689B01546894621B1104669
:104A20000CF0C7FE00285BD1032455E05C463CE057
:104A300029460AF5A3700EF0F6FF0646002854D06A
:104A4000FBF72AFD82B2601C0132314630440EF081
:104A50007DFF2246594630460EF06AFF4FF0200394
:104A60003355BAF8443001331C44AAF8444008F1E5
:104A70000108002401994B1C03AA48460193FFF743
:104A800087FB0646E8B13168002228460DF02AF877
:104A90000028EFD1D6F800B0D7F808A0BBF1000F7E
:104AA000C4D05846FBF7F8FC84B2BAF8443023442B
:104AB000FF2BBDDD0E4A2B46032138460CF0B2FA1F
:104AC0000124B8F1000F07D0B8682A4600F144016C
:104AD00000F5A3700CF02EF8204609B0BDE8F08F69
:104AE0004FF0000841460224C5E70224E9E700BF71
:104AF000D26101002DE9F047804600AF0C46002945
:104B000036D0E9468AB0D1E90012A3686D461C4848
:104B10002E464FF0050AC5E90501C5E9072346F809
:104B200010AF1848324600234FF42151FDF7DCFB4B
:104B3000CD46D4E903126369AD461348C5F810A009
:104B4000C5E90501C5E907230E48002332464FF4A5
:104B50002151FDF7C9FBCD46E3690C4A0948012103
:104B60000BF0D9FCA3690A4A064801210BF0D3FCDB
:104B70002146404607F0A0FEBD46BDE8F08700BFD5
:104B800024620100B8410100536201008262010009
:104B90009162010030BFFFF7FDBF00BF2DE9F0417A
:104BA0000B4EDFF8308006EB0807CC1B054632467B
:104BB000094920460EF0BCFEA01942460021083CDF
:104BC0000EF0DEFEC5F8B84007F10800BDE8F08140
:104BD000000000000800000080420100044B9968BA
:104BE000D869884203D003494FF080520A60704769
:104BF0001814002004ED00E070B5294C06460D465F
:104C0000284829490CF025FEA36AD9043CD525483B
:104C100026490CF01EFE1720A36A1A0504D5214868
:104C200023490CF016FE18201D4CA36A9B0512D5D3
:104C30001C4820490CF00DFEA36BA26A100409D594
:104C40001D4A184801210BF066FC1EB1A36A23F42B
:104C50000043A3621920124CA36A590504D51148D8
:104C600016490CF0F6FD1A20A36ADA050ED50D4898
:104C700013490CF0EEFD1B20094A936A43F47F436D
:104C8000936200232B7070BD1620C5E7A36A9B04B6
:104C9000F2D504480B490CF0DCFD1C20ECE700BF0A
:104CA00000ED00E0B8410100BF620100D5620100E3
:104CB000E6620100F962010012630100276301004E
:104CC000426301005A63010010B5204C204921487D
:104CD0000CF0BFFDA36A990136D51E481E490CF0A1
:104CE000B8FD1E20A36ADA0104D51A481B490CF04E
:104CF000B0FD1F20154CA36A1B0304D515481849A5
:104D00000CF0A7FD2120A36A590304D511481549C9
:104D10000CF09FFD22200D4CA36A9A0304D50D4888
:104D200011490CF096FD2320A36ADB0304D5094842
:104D30000E490CF08EFD2420044A936A6FEA034367
:104D40006FEA1343936210BD1D20CBE700ED00E036
:104D500089630100B8410100A1630100B46301004F
:104D6000CE630100EC630100116401002B640100BB
:104D70002DE9F843364D8046894636483649174670
:104D80000CF067FDAB6ADE0627D5344931480CF0DC
:104D900060FD1124AB6A1D0704D531492D480CF084
:104DA00058FD12242A4DAB6A980718D52D49294879
:104DB0000CF04FFD6E6BAB6A190646D52A4A2548A2
:104DC000334601210BF0A7FBB9F1000F03D0AB6A0A
:104DD00023F08003AB62132403E01024DAE76FF0C2
:104DE00015061B4DAB6ADA0704D5204919480CF0AB
:104DF00030FD1424AB6A9B0604D51D4915480CF000
:104E000028FD1524124B9A6AD50602D49A6A900797
:104E10000AD55B68190507D54146304600F04AFAC5
:104E200010B180F309880224094B9A6A920642BFA6
:104E30005A6A22F400525A629A6A42F0FF029A6257
:104E400000233B702046BDE8F8836FF01506C2E7EB
:104E500000ED00E0B8410100566401006C640100FF
:104E6000E66201009F640100B7640100CD640100A7
:104E70005A6301002DE9F041664B8AB0D3F80480F3
:104E800000AF0446C8F30805002686F31188BFF377
:104E90006F8F02F07F43B3F17F4F07D102F00C0315
:104EA000082B12D15C495D480CF0D3FC0026344637
:104EB0000023FB71EB1E092B00F28A80DFE803F070
:104EC0000A80837D88888888888610074CBF0C46B6
:104ED0000126EDE7524951484E4D0CF0BAFC002333
:104EE000FB71EB6A9A0705D54E494C480CF0B1FCB2
:104EF000002333E0EB6A002B01DA4B49F5E7EB6A5C
:104F00005B00F5D5494945480CF0A3FC6B69A269E3
:104F100043F480736B61BFF34F8FBFF36F8F6B6987
:104F200032F8022C23F480736B61BFF34F8FBFF311
:104F30006F8F4DF602739A4209D0AB6ADBB27BB336
:104F4000FA1D01212046FFF713FF034606E0236800
:104F5000374A324801210BF0DEFA2368FA79DAB9D0
:104F600007F1080504F1200C206861682A4603C295
:104F7000083464451546F7D17A6A002E44D0C2F34E
:104F8000080121B96FEA52226FEA42227A6207F1E0
:104F900008011846FFF7AEFD2837BD46BDE8F08191
:104FA000AB6A13F47F4F04D0F91D0120FFF724FEF4
:104FB000CBE7AB6AB3F5803F9AD3FFF785FEC4E732
:104FC000FA1D0021BEE7F91D0020EFE719498CE723
:104FD000194A1A4B18F4F87FE8468AB018BF1346EE
:104FE0006A461749C2E905134FF400731384103D54
:104FF000144BD56142F8103F084800234FF411517B
:10500000FDF772F9C54673E722F4FF7222F0010240
:10501000BCE700BF00ED00E01A650100B8410100E7
:10502000456501005C6501007D6501008B6501003F
:10503000AA650100C665010001650100EC6401007C
:10504000EA65010004000001024A536943F01003BD
:105050005361704700ED00E0EFF30880EFF3098142
:1050600001B57246FFF706FF01BD00BF00F0A4FBCB
:10507000202080F311880B484FF0AA014FF40462FE
:105080000DF011FF07484FF40461401880F30988C0
:10509000EFF314800221084380F31488BFF36F8F6D
:1050A00000F0C8F8404F0020084B9B6883420BD1AA
:1050B000EFF3058343B1064B5A6842F080525A60C1
:1050C0005A6A22F400425A620EF0C5B81814002041
:1050D00000ED00E00A4A93686FF00A01C3F8C010BF
:1050E0000849C3F8BC004B6843F080534B60002371
:1050F00083F31188BFF36F8F9368D3F8C0007047B4
:105100001814002000ED00E001B50DF069FFBDE8C6
:10511000014019498A684FF040001044EFF3098CB0
:1051200080E8F01F202080F31288BFF36F8F134FA9
:105130004FF00066CA698A603E604FF0B8041419E7
:1051400020680F4C2060D2F8BC000023C2F8BC30AD
:1051500080F3118804B5104600F054F9BDE804400E
:1051600002F1400090E8F01F8CF3098801B507F0C8
:10517000A1FEBDE8014070471814002004ED00E0D6
:10518000401900201EF0040F0CBFEFF30880EFF36E
:105190000980816911F8021C0229FFD001B50CF0C9
:1051A0004DFB01BD40B2002807DB044A4109012341
:1051B00000F01F00834042F82130704700E100E01A
:1051C00040B200280CDB4309064900F01F002033E1
:1051D0000122824041F82320BFF34F8FBFF36F8F2E
:1051E000704700BF00E100E0054B420900F01F00DE
:1051F00053F82220012303FA00F01040704700BF4B
:1052000000E100E040B20028A8BF00F1604001F1D9
:105210000101B8BF064B4FEA4111ACBF00F5614038
:1052200000F00F00C9B2B4BF195480F800137047E2
:1052300014ED00E00F4A08B50F4B22F07F029A6090
:10524000BFF34F8FBFF36F8FD3F8882022F4700223
:10525000C3F88820EFF3148323F0040383F3148846
:10526000BFF36F8F07F020FC08F0D6FC00F07AF84F
:1052700007F07AFC0000000000ED00E042F8203C5E
:10528000009B42F81C3C0A49019B42F8183C029BD7
:1052900042F8143C21F001014FF0807342F8043CC5
:1052A00042F8081C0023203A0266C0F8BC30704760
:1052B000651B00000A4A0346906878B113F1160F87
:1052C000D0F8A80005D0A0F140029A4205D8834248
:1052D00003D2814228BF002070470020704700BFE2
:1052E0001814002008B50D4B98600D4B0446154668
:1052F000D0F8B8201A600E4607F0DCFD204600F01A
:1053000081F8284686F30988002163B681F3118865
:10531000BFF36F8F00220023FCF724FC1814002039
:1053200040190020014910220A60704710ED00E08A
:1053300072B6404080F31188BFF36F8FBFF34F8F79
:1053400030BF62B6BFF36F8F704700BF72B649407F
:1053500081F31188BFF34F8F20BF80F3118862B6AD
:10536000704700BF044800232021C2180133302BAE
:1053700082F80013F9D1704700E100E001B5EFF3C6
:105380000580A0F110004FEAC0000449014409C99A
:105390009847BDE80140024908470000503F01001E
:1053A000DD4B0000074AD2F8FC3043F08073C2F8AE
:1053B000FC30054B00225A601A6842F001021A6064
:1053C000704700BF00ED00E0001000E0034B00223A
:1053D0005A601A6842F001021A607047001000E03B
:1053E000014B002158687047001000E0024B034A4F
:1053F0000348012100F08CB80000042000000020C8
:10540000F84A0100D0F8A820054B403A1A60054A36
:105410004021C3E901121846012100F083B800BF02
:105420004419002000000B1508B503461048D0F8B9
:105430009020C2F30722013A934207D90D480E4A41
:1054400001210BF068F86FF0150008BDC0F8983026
:105450000A6822F01F021A4342F01002C0F89C2092
:105460008A6842F00102C0F8A0201846EDE700BFAC
:1054700000ED00E0A041010001660100F0B50E461C
:1054800085B01F4604460025B5420DDA606810B3AA
:1054900097B1431E18420AD0104A11482B460121E9
:1054A0000BF039F86FF01502104605B0F0BD1F285B
:1054B000F2D921680B42EFD1236801930CF0D1F9A6
:1054C000A36801A90343D0B20393FFF7ADFF10F126
:1054D000160FE7D0421C01350C34D5E727660100D2
:1054E000A0410100044B0522C3F89420BFF34F8F65
:1054F000BFF36F8F704700BF00ED00E0BFF35F8F19
:10550000024B0022C3F89420704700BF00ED00E07A
:1055100010B5034C01232278FFF7B0FF207010BDB7
:105520003925002008B50B4A00231278FFF7A6FFA3
:1055300010F1160F07D0084A0021D2F89030C3F3BB
:105540000723984200DB08BDC2F89800C2F8A010FB
:105550000130F2E73925002000ED00E0F0B55948B0
:105560005949D0F890300D68C3F307239D4285B0A8
:1055700000F2A580FFF7C2FF49680022954201F1C1
:105580000C0117D1514C524F25706846FDF7FEF9BA
:1055900000250646AE4220D123784A490020D1F8A2
:1055A0009020C2F307229342C0F28380FFF79AFF54
:1055B00000202DE0C0F8982051F80C3C23F01F0388
:1055C000134343F01003C0F89C3051F8043C43F0FF
:1055D0000103C0F8A0300132D0E7009800EB0511BC
:1055E0004FEA051CCB683B40B3F5000F4FD011D8F4
:1055F000B3F5001F35D0B3F5800F3DD0B3F5801F54
:1056000017D0344A344801210AF07CFF6FF01500AE
:1056100005B0F0BDB3F1807F42D0B3F1007FF0D18F
:1056200050F80C3088684A680CF01BF940F4802070
:1056300009E050F80C3088684A680CF012F940F024
:10564000885040F43020039001A92078CDE901234F
:10565000FFF7EAFE0028D9DB2378013323700135F8
:1056600098E750F80C3088684A680CF0FAF840F077
:10567000885040F40020E6E750F80C3088684A680B
:105680000CF0EFF840F0E06040F40030DBE750F859
:105690000C3088684A680CF0E4F840F08270D2E779
:1056A00050F80C3088684A680CF0DBF840F08870DD
:1056B000C9E7C1F89830C1F8A00001336FE74FF097
:1056C000FF30A5E700ED00E0044B01003925002084
:1056D0000000F0FF4A660100A041010008B5024B3E
:1056E0001B689847002008BD50190020034B044A4E
:1056F0001860937843F002039370704750190020AC
:10570000A0010020F0B587B007460E4614460021E0
:10571000102268461D460EF033F902238DF8023040
:105720002A46054B019321466846CDE9047608F0E8
:1057300087FF07B0F0BD00BF8318010008B5064918
:10574000064821F00701C1F1005202F580220AF05B
:1057500080F9002008BD00BF036900205419002013
:105760000E4A0123C2F840354FF080424FF080517D
:10577000C2F87835D1F83001082808D1D1F83411B1
:10578000052904D80648415C09B1C2F838364FF003
:1057900080430122C3F880250020704700E00140CB
:1057A0008766010020B1034B800143F001031847D5
:1057B000704700BF1043010006F0B0B908B50448B7
:1057C0000DF05DFB00280CBF6FF01200002008BD3B
:1057D000003F01000E4B402970B528BF40210D4C01
:1057E00046181D46B04203F1020304D1002305F818
:1057F0001130074870BD02781209A25C03F8022C30
:1058000010F8012B02F00F02A25C03F8012CE9E76B
:1058100058250020E966010030B503788BB00446B6
:1058200007AD032B21D8DFE803F0021A1C1E124932
:105830002846FAF729FE059563780493A378039325
:10584000E37802932379019363790093A3790B4A58
:105850000B481E2108F050FD09480BB030BD094926
:10586000E6E70949E4E70949E2E7094A0A21284647
:1058700008F042FDDFE700BFA4660100C666010034
:105880003A250020AB660100B2660100BC6601004B
:105890000F69010038B5054605480CF038FF04468D
:1058A00020B100210C300CF077FF2576204638BD62
:1058B000C404002010B531B109480CF028FF04469B
:1058C00030B9204610BDBDE810400120FFF7E2BF0F
:1058D00000210C300CF060FF01232376F1E700BFBC
:1058E0006C04002010B501210C300CF070FFBDE8F5
:1058F00010400378024A034801210CF016B900BF9A
:10590000026701006041010010B5074907480DF02A
:10591000EAFD031E06DABDE81040054A05480121EC
:105920000CF003B910BD00BFC4010020F00F00202F
:105930002467010060410100B0B50B460D8A00AF3D
:1059400004462946D868FFF745FF8AB06A46094BE6
:10595000C2E9053440F202439384074BC2E9075081
:1059600042F8103F054800234FF43251FCF7BCFCCD
:10597000BD46B0BD41670100050000016041010066
:1059800037B502EBC303934204D103B0BDE8304006
:10599000FFF7D2BF144614F8085B854211D10B8A79
:1059A00054789C4207D9084A0090012107480AF020
:1059B000BCFD03B030BD5368084603B0BDE83040BD
:1059C00018472246DFE700BF63670100604101001E
:1059D00038B51E480CF0B7FE0446002835D0017ECD
:1059E00001292ED1038A012B04D8194A19480CF039
:1059F0009CF81BE002210C300CF0E9FE03780E3B12
:105A0000012B05460CD8144A1449154840F6E923E1
:105A10000AF0C3F8404080F311884FF0030002DF22
:105A2000104A287803232146FFF7AAFF204604F0F6
:105A3000F5FE0D4BD3F804313BB1BDE83840FFF71C
:105A400063BF0B46094A0121D0E738BD040100209D
:105A50008567010060410100A1670100D567010071
:105A6000036801008C4B0100000000202068010049
:105A700010B5012104460C300CF0A9FE2146034A62
:105A80000078BDE810400123FFF77ABFA44B010066
:105A90002DE9F74FDFF854B1BFF35B8F81460F4616
:105AA00090464FF0000A5BE8004F4BE800A3002B44
:105AB000F9D1BFF35B8F264644B94D4A4D484B465A
:105AC000012103B0BDE8F04F0CF02FB8204604F0E0
:105AD00009FE494D0C2303FB005042884A4520D063
